{
  "contractName": "TresFinance",
  "abi": [
    {
      "inputs": [],
      "name": "nextId",
      "outputs": [
        {
          "internalType": "uint256",
          "name": "",
          "type": "uint256"
        }
      ],
      "stateMutability": "view",
      "type": "function",
      "constant": true
    },
    {
      "inputs": [
        {
          "internalType": "address",
          "name": "",
          "type": "address"
        },
        {
          "internalType": "uint256",
          "name": "",
          "type": "uint256"
        }
      ],
      "name": "transactions",
      "outputs": [
        {
          "internalType": "uint256",
          "name": "id",
          "type": "uint256"
        },
        {
          "internalType": "string",
          "name": "description",
          "type": "string"
        },
        {
          "internalType": "uint256",
          "name": "amount",
          "type": "uint256"
        },
        {
          "internalType": "uint256",
          "name": "timestamp",
          "type": "uint256"
        }
      ],
      "stateMutability": "view",
      "type": "function",
      "constant": true
    },
    {
      "inputs": [
        {
          "internalType": "string",
          "name": "description",
          "type": "string"
        },
        {
          "internalType": "uint256",
          "name": "amount",
          "type": "uint256"
        }
      ],
      "name": "addTransaction",
      "outputs": [],
      "stateMutability": "nonpayable",
      "type": "function"
    },
    {
      "inputs": [],
      "name": "getTransactions",
      "outputs": [
        {
          "components": [
            {
              "internalType": "uint256",
              "name": "id",
              "type": "uint256"
            },
            {
              "internalType": "string",
              "name": "description",
              "type": "string"
            },
            {
              "internalType": "uint256",
              "name": "amount",
              "type": "uint256"
            },
            {
              "internalType": "uint256",
              "name": "timestamp",
              "type": "uint256"
            }
          ],
          "internalType": "struct TresFinance.Transaction[]",
          "name": "",
          "type": "tuple[]"
        }
      ],
      "stateMutability": "view",
      "type": "function",
      "constant": true
    }
  ],
  "bytecode": "0x608060405234801561000f575f80fd5b50610c248061001d5f395ff3fe608060405234801561000f575f80fd5b506004361061004a575f3560e01c8063145381281461004e57806324aceeb41461008157806361b8ce8c1461009d57806383920e90146100bb575b5f80fd5b6100686004803603810190610063919061045f565b6100d9565b6040516100789493929190610536565b60405180910390f35b61009b600480360381019061009691906106ac565b6101a4565b005b6100a5610278565b6040516100b29190610706565b60405180910390f35b6100c361027e565b6040516100d09190610891565b60405180910390f35b5f602052815f5260405f2081815481106100f1575f80fd5b905f5260205f2090600402015f9150915050805f015490806001018054610117906108de565b80601f0160208091040260200160405190810160405280929190818152602001828054610143906108de565b801561018e5780601f106101655761010080835404028352916020019161018e565b820191905f5260205f20905b81548152906001019060200180831161017157829003601f168201915b5050505050908060020154908060030154905084565b5f803373ffffffffffffffffffffffffffffffffffffffff1673ffffffffffffffffffffffffffffffffffffffff1681526020019081526020015f206040518060800160405280600154815260200184815260200183815260200142815250908060018154018082558091505060019003905f5260205f2090600402015f909190919091505f820151815f015560208201518160010190816102469190610aab565b506040820151816002015560608201518160030155505060015f81548092919061026f90610ba7565b91905055505050565b60015481565b60605f803373ffffffffffffffffffffffffffffffffffffffff1673ffffffffffffffffffffffffffffffffffffffff1681526020019081526020015f20805480602002602001604051908101604052809291908181526020015f905b828210156103b8578382905f5260205f2090600402016040518060800160405290815f8201548152602001600182018054610315906108de565b80601f0160208091040260200160405190810160405280929190818152602001828054610341906108de565b801561038c5780601f106103635761010080835404028352916020019161038c565b820191905f5260205f20905b81548152906001019060200180831161036f57829003601f168201915b5050505050815260200160028201548152602001600382015481525050815260200190600101906102db565b50505050905090565b5f604051905090565b5f80fd5b5f80fd5b5f73ffffffffffffffffffffffffffffffffffffffff82169050919050565b5f6103fb826103d2565b9050919050565b61040b816103f1565b8114610415575f80fd5b50565b5f8135905061042681610402565b92915050565b5f819050919050565b61043e8161042c565b8114610448575f80fd5b50565b5f8135905061045981610435565b92915050565b5f8060408385031215610475576104746103ca565b5b5f61048285828601610418565b92505060206104938582860161044b565b9150509250929050565b6104a68161042c565b82525050565b5f81519050919050565b5f82825260208201905092915050565b5f5b838110156104e35780820151818401526020810190506104c8565b5f8484015250505050565b5f601f19601f8301169050919050565b5f610508826104ac565b61051281856104b6565b93506105228185602086016104c6565b61052b816104ee565b840191505092915050565b5f6080820190506105495f83018761049d565b818103602083015261055b81866104fe565b905061056a604083018561049d565b610577606083018461049d565b95945050505050565b5f80fd5b5f80fd5b7f4e487b71000000000000000000000000000000000000000000000000000000005f52604160045260245ffd5b6105be826104ee565b810181811067ffffffffffffffff821117156105dd576105dc610588565b5b80604052505050565b5f6105ef6103c1565b90506105fb82826105b5565b919050565b5f67ffffffffffffffff82111561061a57610619610588565b5b610623826104ee565b9050602081019050919050565b828183375f83830152505050565b5f61065061064b84610600565b6105e6565b90508281526020810184848401111561066c5761066b610584565b5b610677848285610630565b509392505050565b5f82601f83011261069357610692610580565b5b81356106a384826020860161063e565b91505092915050565b5f80604083850312156106c2576106c16103ca565b5b5f83013567ffffffffffffffff8111156106df576106de6103ce565b5b6106eb8582860161067f565b92505060206106fc8582860161044b565b9150509250929050565b5f6020820190506107195f83018461049d565b92915050565b5f81519050919050565b5f82825260208201905092915050565b5f819050602082019050919050565b6107518161042c565b82525050565b5f82825260208201905092915050565b5f610771826104ac565b61077b8185610757565b935061078b8185602086016104c6565b610794816104ee565b840191505092915050565b5f608083015f8301516107b45f860182610748565b50602083015184820360208601526107cc8282610767565b91505060408301516107e16040860182610748565b5060608301516107f46060860182610748565b508091505092915050565b5f61080a838361079f565b905092915050565b5f602082019050919050565b5f6108288261071f565b6108328185610729565b93508360208202850161084485610739565b805f5b8581101561087f578484038952815161086085826107ff565b945061086b83610812565b925060208a01995050600181019050610847565b50829750879550505050505092915050565b5f6020820190508181035f8301526108a9818461081e565b905092915050565b7f4e487b71000000000000000000000000000000000000000000000000000000005f52602260045260245ffd5b5f60028204905060018216806108f557607f821691505b602082108103610908576109076108b1565b5b50919050565b5f819050815f5260205f209050919050565b5f6020601f8301049050919050565b5f82821b905092915050565b5f6008830261096a7fffffffffffffffffffffffffffffffffffffffffffffffffffffffffffffffff8261092f565b610974868361092f565b95508019841693508086168417925050509392505050565b5f819050919050565b5f6109af6109aa6109a58461042c565b61098c565b61042c565b9050919050565b5f819050919050565b6109c883610995565b6109dc6109d4826109b6565b84845461093b565b825550505050565b5f90565b6109f06109e4565b6109fb8184846109bf565b505050565b5b81811015610a1e57610a135f826109e8565b600181019050610a01565b5050565b601f821115610a6357610a348161090e565b610a3d84610920565b81016020851015610a4c578190505b610a60610a5885610920565b830182610a00565b50505b505050565b5f82821c905092915050565b5f610a835f1984600802610a68565b1980831691505092915050565b5f610a9b8383610a74565b9150826002028217905092915050565b610ab4826104ac565b67ffffffffffffffff811115610acd57610acc610588565b5b610ad782546108de565b610ae2828285610a22565b5f60209050601f831160018114610b13575f8415610b01578287015190505b610b0b8582610a90565b865550610b72565b601f198416610b218661090e565b5f5b82811015610b4857848901518255600182019150602085019450602081019050610b23565b86831015610b655784890151610b61601f891682610a74565b8355505b6001600288020188555050505b505050505050565b7f4e487b71000000000000000000000000000000000000000000000000000000005f52601160045260245ffd5b5f610bb18261042c565b91507fffffffffffffffffffffffffffffffffffffffffffffffffffffffffffffffff8203610be357610be2610b7a565b5b60018201905091905056fea264697066735822122094f583ca62ad103f2b681975a9c6ef3b102a6c822b3c2302aa15af74766c2cb464736f6c63430008150033",
  "immutableReferences": {},
  "source": "pragma solidity ^0.8.0;\n\ncontract TresFinance {\n    struct Transaction {\n        uint id;\n        string description;\n        uint amount;\n        uint timestamp;\n    }\n\n    mapping(address => Transaction[]) public transactions;\n    uint public nextId;\n\n    function addTransaction(string memory description, uint amount) public {\n        transactions[msg.sender].push(Transaction(nextId, description, amount, block.timestamp));\n        nextId++;\n    }\n\n    function getTransactions() public view returns (Transaction[] memory) {\n        return transactions[msg.sender];\n    }\n}\n",
  "sourcePath": "/Users/sosa/Desktop/cursor/Tres-dApp/backend/contracts/TresFinance.sol",
  "compiler": {
    "name": "solc",
    "version": "0.8.21+commit.d9974bed.Emscripten.clang"
  },
  "schemaVersion": "3.4.16",
  "updatedAt": "2024-07-11T16:58:30.738Z",
  "networkType": "ethereum",
  "devdoc": {
    "kind": "dev",
    "methods": {},
    "version": 1
  },
  "userdoc": {
    "kind": "user",
    "methods": {},
    "version": 1
  }
}